{
  "contractName": "PokerLO",
  "abi": [
    {
      "inputs": [],
      "stateMutability": "nonpayable",
      "type": "constructor"
    },
    {
      "anonymous": false,
      "inputs": [
        {
          "indexed": true,
          "internalType": "uint256",
          "name": "playerID",
          "type": "uint256"
        },
        {
          "indexed": false,
          "internalType": "uint256",
          "name": "newELO",
          "type": "uint256"
        }
      ],
      "name": "tournamentWinner",
      "type": "event"
    },
    {
      "inputs": [],
      "name": "owner",
      "outputs": [
        {
          "internalType": "address",
          "name": "",
          "type": "address"
        }
      ],
      "stateMutability": "view",
      "type": "function",
      "constant": true
    },
    {
      "inputs": [],
      "name": "totalPlayers",
      "outputs": [
        {
          "internalType": "uint256",
          "name": "",
          "type": "uint256"
        }
      ],
      "stateMutability": "view",
      "type": "function",
      "constant": true
    },
    {
      "inputs": [
        {
          "internalType": "string",
          "name": "name",
          "type": "string"
        },
        {
          "internalType": "uint256",
          "name": "ELO",
          "type": "uint256"
        }
      ],
      "name": "addPlayer",
      "outputs": [
        {
          "internalType": "uint256",
          "name": "",
          "type": "uint256"
        }
      ],
      "stateMutability": "nonpayable",
      "type": "function"
    },
    {
      "inputs": [],
      "name": "dummy",
      "outputs": [
        {
          "internalType": "uint256",
          "name": "",
          "type": "uint256"
        }
      ],
      "stateMutability": "nonpayable",
      "type": "function"
    },
    {
      "inputs": [
        {
          "internalType": "uint256",
          "name": "id",
          "type": "uint256"
        },
        {
          "internalType": "uint256",
          "name": "n",
          "type": "uint256"
        }
      ],
      "name": "subELO",
      "outputs": [
        {
          "internalType": "uint256",
          "name": "",
          "type": "uint256"
        }
      ],
      "stateMutability": "nonpayable",
      "type": "function"
    },
    {
      "inputs": [
        {
          "internalType": "uint256",
          "name": "id",
          "type": "uint256"
        },
        {
          "internalType": "uint256",
          "name": "n",
          "type": "uint256"
        }
      ],
      "name": "addELO",
      "outputs": [
        {
          "internalType": "uint256",
          "name": "",
          "type": "uint256"
        }
      ],
      "stateMutability": "nonpayable",
      "type": "function"
    },
    {
      "inputs": [
        {
          "internalType": "uint256",
          "name": "id",
          "type": "uint256"
        }
      ],
      "name": "getELO",
      "outputs": [
        {
          "internalType": "uint256",
          "name": "",
          "type": "uint256"
        }
      ],
      "stateMutability": "view",
      "type": "function",
      "constant": true
    },
    {
      "inputs": [
        {
          "internalType": "string",
          "name": "name",
          "type": "string"
        }
      ],
      "name": "findPlayerID",
      "outputs": [
        {
          "internalType": "uint256",
          "name": "",
          "type": "uint256"
        }
      ],
      "stateMutability": "view",
      "type": "function",
      "constant": true
    },
    {
      "inputs": [
        {
          "internalType": "uint256",
          "name": "id",
          "type": "uint256"
        }
      ],
      "name": "findPlayerName",
      "outputs": [
        {
          "internalType": "string",
          "name": "",
          "type": "string"
        }
      ],
      "stateMutability": "view",
      "type": "function",
      "constant": true
    },
    {
      "inputs": [
        {
          "internalType": "uint256",
          "name": "id",
          "type": "uint256"
        }
      ],
      "name": "findPlayerIndex",
      "outputs": [
        {
          "internalType": "uint256",
          "name": "",
          "type": "uint256"
        }
      ],
      "stateMutability": "view",
      "type": "function",
      "constant": true
    },
    {
      "inputs": [],
      "name": "getPlayers",
      "outputs": [
        {
          "internalType": "string[]",
          "name": "",
          "type": "string[]"
        }
      ],
      "stateMutability": "view",
      "type": "function",
      "constant": true
    },
    {
      "inputs": [
        {
          "internalType": "uint256",
          "name": "buyIn",
          "type": "uint256"
        },
        {
          "internalType": "uint256",
          "name": "totPlayers",
          "type": "uint256"
        }
      ],
      "name": "calculateELO",
      "outputs": [
        {
          "internalType": "uint256[]",
          "name": "",
          "type": "uint256[]"
        }
      ],
      "stateMutability": "pure",
      "type": "function",
      "constant": true
    },
    {
      "inputs": [
        {
          "internalType": "uint256",
          "name": "buyIn",
          "type": "uint256"
        },
        {
          "internalType": "uint256",
          "name": "totPlayers",
          "type": "uint256"
        },
        {
          "internalType": "uint256[]",
          "name": "id",
          "type": "uint256[]"
        },
        {
          "internalType": "uint256[]",
          "name": "place",
          "type": "uint256[]"
        }
      ],
      "name": "updateELO",
      "outputs": [],
      "stateMutability": "nonpayable",
      "type": "function"
    },
    {
      "inputs": [],
      "name": "ownerPage",
      "outputs": [
        {
          "internalType": "bool",
          "name": "",
          "type": "bool"
        }
      ],
      "stateMutability": "view",
      "type": "function",
      "constant": true
    },
    {
      "inputs": [],
      "name": "topFiveELO",
      "outputs": [
        {
          "internalType": "uint256[]",
          "name": "",
          "type": "uint256[]"
        }
      ],
      "stateMutability": "view",
      "type": "function",
      "constant": true
    },
    {
      "inputs": [],
      "name": "topFiveName",
      "outputs": [
        {
          "internalType": "string[]",
          "name": "",
          "type": "string[]"
        }
      ],
      "stateMutability": "view",
      "type": "function",
      "constant": true
    }
  ],
  "bytecode": "0x60806040526105dc60035534801561001657600080fd5b5060006002819055506000808190555033600160006101000a81548173ffffffffffffffffffffffffffffffffffffffff021916908373ffffffffffffffffffffffffffffffffffffffff160217905550612508806100766000396000f3fe608060405234801561001057600080fd5b50600436106101005760003560e01c80638da5cb5b11610097578063cc3d083311610066578063cc3d0833146102d7578063f60cdcf6146102f5578063f77444b114610313578063fdfe86d41461034357610100565b80638da5cb5b1461023d578063a49012dc1461025b578063affd18d214610277578063b442106c146102a757610100565b8063768b1c8d116100d3578063768b1c8d146101a157806376c07da4146101bf578063822a56f9146101ef5780638b5b9ccc1461021f57610100565b806317fc1cc7146101055780631e493a7d1461013557806332e43a1114610165578063430196be14610183575b600080fd5b61011f600480360381019061011a9190611657565b610373565b60405161012c9190611693565b60405180910390f35b61014f600480360381019061014a9190611657565b610411565b60405161015c9190611693565b60405180910390f35b61016d61044d565b60405161017a9190611693565b60405180910390f35b61018b61046e565b60405161019891906116c9565b60405180910390f35b6101a9610507565b6040516101b69190611836565b60405180910390f35b6101d960048036038101906101d4919061198d565b610904565b6040516101e69190611693565b60405180910390f35b610209600480360381019061020491906119e9565b610aa0565b6040516102169190611ae7565b60405180910390f35b610227610b7d565b6040516102349190611836565b60405180910390f35b610245610cce565b6040516102529190611b4a565b60405180910390f35b61027560048036038101906102709190611c2d565b610cf4565b005b610291600480360381019061028c91906119e9565b610ee3565b60405161029e9190611693565b60405180910390f35b6102c160048036038101906102bc9190611657565b610fed565b6040516102ce9190611d16565b60405180910390f35b6102df611135565b6040516102ec9190611ae7565b60405180910390f35b6102fd6113cc565b60405161030a9190611693565b60405180910390f35b61032d600480360381019061032891906119e9565b6113d2565b60405161033a9190611693565b60405180910390f35b61035d60048036038101906103589190611d38565b6114dc565b60405161036a9190611693565b60405180910390f35b600080600090505b6004805490508110156103d057826004828154811061039d5761039c611d81565b5b906000526020600020906003020160020154036103bd578091505061040c565b80806103c890611ddf565b91505061037b565b506040517f08c379a000000000000000000000000000000000000000000000000000000000815260040161040390611e73565b60405180910390fd5b919050565b60008061041d83610373565b90506004818154811061043357610432611d81565b5b906000526020600020906003020160010154915050919050565b600080600081548092919061046190611ddf565b9190505550600054905090565b6000600160009054906101000a900473ffffffffffffffffffffffffffffffffffffffff1673ffffffffffffffffffffffffffffffffffffffff163373ffffffffffffffffffffffffffffffffffffffff1614610500576040517f08c379a00000000000000000000000000000000000000000000000000000000081526004016104f790611edf565b60405180910390fd5b6001905090565b60606000600480549050905060008167ffffffffffffffff81111561052f5761052e611862565b5b60405190808252806020026020018201604052801561056857816020015b6105556115ec565b81526020019060019003908161054d5790505b509050606060005b8381101561067c576004818154811061058c5761058b611d81565b5b90600052602060002090600302016040518060600160405290816000820180546105b590611f2e565b80601f01602080910402602001604051908101604052809291908181526020018280546105e190611f2e565b801561062e5780601f106106035761010080835404028352916020019161062e565b820191906000526020600020905b81548152906001019060200180831161061157829003601f168201915b505050505081526020016001820154815260200160028201548152505083828151811061065e5761065d611d81565b5b6020026020010181905250808061067490611ddf565b915050610570565b5060005b60018461068d9190611f5f565b8110156107925760006001826106a39190611f93565b90505b8481101561077e578381815181106106c1576106c0611d81565b5b6020026020010151602001518483815181106106e0576106df611d81565b5b602002602001015160200151101561076b57600084838151811061070757610706611d81565b5b6020026020010151905084828151811061072457610723611d81565b5b602002602001015185848151811061073f5761073e611d81565b5b60200260200101819052508085838151811061075e5761075d611d81565b5b6020026020010181905250505b808061077690611ddf565b9150506106a6565b50808061078a90611ddf565b915050610680565b506005831061084e57600567ffffffffffffffff8111156107b6576107b5611862565b5b6040519080825280602002602001820160405280156107e957816020015b60608152602001906001900390816107d45790505b50905060005b60058110156108485782818151811061080b5761080a611d81565b5b60200260200101516000015182828151811061082a57610829611d81565b5b6020026020010181905250808061084090611ddf565b9150506107ef565b506108fb565b8267ffffffffffffffff81111561086857610867611862565b5b60405190808252806020026020018201604052801561089b57816020015b60608152602001906001900390816108865790505b50905060005b838110156108f9578281815181106108bc576108bb611d81565b5b6020026020010151600001518282815181106108db576108da611d81565b5b602002602001018190525080806108f190611ddf565b9150506108a1565b505b80935050505090565b6000600160009054906101000a900473ffffffffffffffffffffffffffffffffffffffff1673ffffffffffffffffffffffffffffffffffffffff163373ffffffffffffffffffffffffffffffffffffffff1614610996576040517f08c379a000000000000000000000000000000000000000000000000000000000815260040161098d90611edf565b60405180910390fd5b600082036109a45760035491505b60006002549050600260008154809291906109be90611ddf565b9190505550600460405180606001604052808681526020018581526020018381525090806001815401808255809150506001900390600052602060002090600302016000909190919091506000820151816000019081610a1e9190612173565b506020820151816001015560408201518160020155505060048181548110610a4957610a48611d81565b5b90600052602060002090600302016005600083815260200190815260200160002060008201816000019081610a7e919061225b565b5060018201548160010155600282015481600201559050508091505092915050565b606060008267ffffffffffffffff811115610abe57610abd611862565b5b604051908082528060200260200182016040528015610aec5781602001602082028036833780820191505090505b50905060005b83811015610b725780600185610b089190611f5f565b610b129190611f5f565b600185610b1f9190611f5f565b866002610b2c9190612343565b610b3691906123b4565b610b409190612343565b828281518110610b5357610b52611d81565b5b6020026020010181815250508080610b6a90611ddf565b915050610af2565b508091505092915050565b60606000600480549050905060008167ffffffffffffffff811115610ba557610ba4611862565b5b604051908082528060200260200182016040528015610bd857816020015b6060815260200190600190039081610bc35790505b50905060005b82811015610cc55760048181548110610bfa57610bf9611d81565b5b90600052602060002090600302016000018054610c1690611f2e565b80601f0160208091040260200160405190810160405280929190818152602001828054610c4290611f2e565b8015610c8f5780601f10610c6457610100808354040283529160200191610c8f565b820191906000526020600020905b815481529060010190602001808311610c7257829003601f168201915b5050505050828281518110610ca757610ca6611d81565b5b60200260200101819052508080610cbd90611ddf565b915050610bde565b50809250505090565b600160009054906101000a900473ffffffffffffffffffffffffffffffffffffffff1681565b600160009054906101000a900473ffffffffffffffffffffffffffffffffffffffff1673ffffffffffffffffffffffffffffffffffffffff163373ffffffffffffffffffffffffffffffffffffffff1614610d84576040517f08c379a0000000000000000000000000000000000000000000000000000000008152600401610d7b90611edf565b60405180910390fd5b6000610d908585610aa0565b905060008060005b86811015610e3757610dc4868281518110610db657610db5611d81565b5b602002602001015189610ee3565b50600084868381518110610ddb57610dda611d81565b5b602002602001015181518110610df457610df3611d81565b5b60200260200101519050610e22878381518110610e1457610e13611d81565b5b6020026020010151826113d2565b50508080610e2f90611ddf565b915050610d98565b5060005b86811015610ea1576000858281518110610e5857610e57611d81565b5b602002602001015103610e8e57858181518110610e7857610e77611d81565b5b60200260200101519250610e8b83610411565b91505b8080610e9990611ddf565b915050610e3b565b50817f05c308e7eb1826d5eb4802b531586fa2fd37c535814c7845fbea63dd5ec3fd9582604051610ed29190611693565b60405180910390a250505050505050565b6000600160009054906101000a900473ffffffffffffffffffffffffffffffffffffffff1673ffffffffffffffffffffffffffffffffffffffff163373ffffffffffffffffffffffffffffffffffffffff1614610f75576040517f08c379a0000000000000000000000000000000000000000000000000000000008152600401610f6c90611edf565b60405180910390fd5b6000610f8084610373565b90508260048281548110610f9757610f96611d81565b5b90600052602060002090600302016001016000828254610fb79190611f5f565b9250508190555060048181548110610fd257610fd1611d81565b5b90600052602060002090600302016001015491505092915050565b606060005b6004805490508110156110f457826004828154811061101457611013611d81565b5b906000526020600020906003020160020154036110e1576004818154811061103f5761103e611d81565b5b9060005260206000209060030201600001805461105b90611f2e565b80601f016020809104026020016040519081016040528092919081815260200182805461108790611f2e565b80156110d45780601f106110a9576101008083540402835291602001916110d4565b820191906000526020600020905b8154815290600101906020018083116110b757829003601f168201915b5050505050915050611130565b80806110ec90611ddf565b915050610ff2565b506040517f08c379a000000000000000000000000000000000000000000000000000000000815260040161112790611e73565b60405180910390fd5b919050565b60606000600480549050905060008167ffffffffffffffff81111561115d5761115c611862565b5b60405190808252806020026020018201604052801561118b5781602001602082028036833780820191505090505b509050606060005b838110156111f357600481815481106111af576111ae611d81565b5b9060005260206000209060030201600101548382815181106111d4576111d3611d81565b5b60200260200101818152505080806111eb90611ddf565b915050611193565b5060005b6001846112049190611f5f565b81101561130357600060018261121a9190611f93565b90505b848110156112ef5783818151811061123857611237611d81565b5b602002602001015184838151811061125357611252611d81565b5b602002602001015110156112dc57600084838151811061127657611275611d81565b5b6020026020010151905084828151811061129357611292611d81565b5b60200260200101518584815181106112ae576112ad611d81565b5b602002602001018181525050808583815181106112ce576112cd611d81565b5b602002602001018181525050505b80806112e790611ddf565b91505061121d565b5080806112fb90611ddf565b9150506111f7565b50600583106113b757600567ffffffffffffffff81111561132757611326611862565b5b6040519080825280602002602001820160405280156113555781602001602082028036833780820191505090505b50905060005b60058110156113b15782818151811061137757611376611d81565b5b602002602001015182828151811061139257611391611d81565b5b60200260200101818152505080806113a990611ddf565b91505061135b565b506113c2565b8193505050506113c9565b8093505050505b90565b60025481565b6000600160009054906101000a900473ffffffffffffffffffffffffffffffffffffffff1673ffffffffffffffffffffffffffffffffffffffff163373ffffffffffffffffffffffffffffffffffffffff1614611464576040517f08c379a000000000000000000000000000000000000000000000000000000000815260040161145b90611edf565b60405180910390fd5b600061146f84610373565b9050826004828154811061148657611485611d81565b5b906000526020600020906003020160010160008282546114a69190611f93565b92505081905550600481815481106114c1576114c0611d81565b5b90600052602060002090600302016001015491505092915050565b600080826040516020016114f09190612421565b60405160208183030381529060405280519060200120905060005b6004805490508110156115ab57816004828154811061152d5761152c611d81565b5b906000526020600020906003020160000160405160200161154e91906124bb565b6040516020818303038152906040528051906020012003611598576004818154811061157d5761157c611d81565b5b906000526020600020906003020160020154925050506115e7565b80806115a390611ddf565b91505061150b565b506040517f08c379a00000000000000000000000000000000000000000000000000000000081526004016115de90611e73565b60405180910390fd5b919050565b60405180606001604052806060815260200160008152602001600081525090565b6000604051905090565b600080fd5b600080fd5b6000819050919050565b61163481611621565b811461163f57600080fd5b50565b6000813590506116518161162b565b92915050565b60006020828403121561166d5761166c611617565b5b600061167b84828501611642565b91505092915050565b61168d81611621565b82525050565b60006020820190506116a86000830184611684565b92915050565b60008115159050919050565b6116c3816116ae565b82525050565b60006020820190506116de60008301846116ba565b92915050565b600081519050919050565b600082825260208201905092915050565b6000819050602082019050919050565b600081519050919050565b600082825260208201905092915050565b60005b8381101561174a57808201518184015260208101905061172f565b60008484015250505050565b6000601f19601f8301169050919050565b600061177282611710565b61177c818561171b565b935061178c81856020860161172c565b61179581611756565b840191505092915050565b60006117ac8383611767565b905092915050565b6000602082019050919050565b60006117cc826116e4565b6117d681856116ef565b9350836020820285016117e885611700565b8060005b85811015611824578484038952815161180585826117a0565b9450611810836117b4565b925060208a019950506001810190506117ec565b50829750879550505050505092915050565b6000602082019050818103600083015261185081846117c1565b905092915050565b600080fd5b600080fd5b7f4e487b7100000000000000000000000000000000000000000000000000000000600052604160045260246000fd5b61189a82611756565b810181811067ffffffffffffffff821117156118b9576118b8611862565b5b80604052505050565b60006118cc61160d565b90506118d88282611891565b919050565b600067ffffffffffffffff8211156118f8576118f7611862565b5b61190182611756565b9050602081019050919050565b82818337600083830152505050565b600061193061192b846118dd565b6118c2565b90508281526020810184848401111561194c5761194b61185d565b5b61195784828561190e565b509392505050565b600082601f83011261197457611973611858565b5b813561198484826020860161191d565b91505092915050565b600080604083850312156119a4576119a3611617565b5b600083013567ffffffffffffffff8111156119c2576119c161161c565b5b6119ce8582860161195f565b92505060206119df85828601611642565b9150509250929050565b60008060408385031215611a00576119ff611617565b5b6000611a0e85828601611642565b9250506020611a1f85828601611642565b9150509250929050565b600081519050919050565b600082825260208201905092915050565b6000819050602082019050919050565b611a5e81611621565b82525050565b6000611a708383611a55565b60208301905092915050565b6000602082019050919050565b6000611a9482611a29565b611a9e8185611a34565b9350611aa983611a45565b8060005b83811015611ada578151611ac18882611a64565b9750611acc83611a7c565b925050600181019050611aad565b5085935050505092915050565b60006020820190508181036000830152611b018184611a89565b905092915050565b600073ffffffffffffffffffffffffffffffffffffffff82169050919050565b6000611b3482611b09565b9050919050565b611b4481611b29565b82525050565b6000602082019050611b5f6000830184611b3b565b92915050565b600067ffffffffffffffff821115611b8057611b7f611862565b5b602082029050602081019050919050565b600080fd5b6000611ba9611ba484611b65565b6118c2565b90508083825260208201905060208402830185811115611bcc57611bcb611b91565b5b835b81811015611bf55780611be18882611642565b845260208401935050602081019050611bce565b5050509392505050565b600082601f830112611c1457611c13611858565b5b8135611c24848260208601611b96565b91505092915050565b60008060008060808587031215611c4757611c46611617565b5b6000611c5587828801611642565b9450506020611c6687828801611642565b935050604085013567ffffffffffffffff811115611c8757611c8661161c565b5b611c9387828801611bff565b925050606085013567ffffffffffffffff811115611cb457611cb361161c565b5b611cc087828801611bff565b91505092959194509250565b600082825260208201905092915050565b6000611ce882611710565b611cf28185611ccc565b9350611d0281856020860161172c565b611d0b81611756565b840191505092915050565b60006020820190508181036000830152611d308184611cdd565b905092915050565b600060208284031215611d4e57611d4d611617565b5b600082013567ffffffffffffffff811115611d6c57611d6b61161c565b5b611d788482850161195f565b91505092915050565b7f4e487b7100000000000000000000000000000000000000000000000000000000600052603260045260246000fd5b7f4e487b7100000000000000000000000000000000000000000000000000000000600052601160045260246000fd5b6000611dea82611621565b91507fffffffffffffffffffffffffffffffffffffffffffffffffffffffffffffffff8203611e1c57611e1b611db0565b5b600182019050919050565b7f506c61796572206e6f7420666f756e6400000000000000000000000000000000600082015250565b6000611e5d601083611ccc565b9150611e6882611e27565b602082019050919050565b60006020820190508181036000830152611e8c81611e50565b9050919050565b7f4f6e6c79206f776e657273206d617920696e7465726163740000000000000000600082015250565b6000611ec9601883611ccc565b9150611ed482611e93565b602082019050919050565b60006020820190508181036000830152611ef881611ebc565b9050919050565b7f4e487b7100000000000000000000000000000000000000000000000000000000600052602260045260246000fd5b60006002820490506001821680611f4657607f821691505b602082108103611f5957611f58611eff565b5b50919050565b6000611f6a82611621565b9150611f7583611621565b9250828203905081811115611f8d57611f8c611db0565b5b92915050565b6000611f9e82611621565b9150611fa983611621565b9250828201905080821115611fc157611fc0611db0565b5b92915050565b60008190508160005260206000209050919050565b60006020601f8301049050919050565b600082821b905092915050565b6000600883026120297fffffffffffffffffffffffffffffffffffffffffffffffffffffffffffffffff82611fec565b6120338683611fec565b95508019841693508086168417925050509392505050565b6000819050919050565b600061207061206b61206684611621565b61204b565b611621565b9050919050565b6000819050919050565b61208a83612055565b61209e61209682612077565b848454611ff9565b825550505050565b600090565b6120b36120a6565b6120be818484612081565b505050565b5b818110156120e2576120d76000826120ab565b6001810190506120c4565b5050565b601f821115612127576120f881611fc7565b61210184611fdc565b81016020851015612110578190505b61212461211c85611fdc565b8301826120c3565b50505b505050565b600082821c905092915050565b600061214a6000198460080261212c565b1980831691505092915050565b60006121638383612139565b9150826002028217905092915050565b61217c82611710565b67ffffffffffffffff81111561219557612194611862565b5b61219f8254611f2e565b6121aa8282856120e6565b600060209050601f8311600181146121dd57600084156121cb578287015190505b6121d58582612157565b86555061223d565b601f1984166121eb86611fc7565b60005b82811015612213578489015182556001820191506020850194506020810190506121ee565b86831015612230578489015161222c601f891682612139565b8355505b6001600288020188555050505b505050505050565b60008154905061225481611f2e565b9050919050565b818103612269575050612341565b61227282612245565b67ffffffffffffffff81111561228b5761228a611862565b5b6122958254611f2e565b6122a08282856120e6565b6000601f8311600181146122cf57600084156122bd578287015490505b6122c78582612157565b86555061233a565b601f1984166122dd87611fc7565b96506122e886611fc7565b60005b82811015612310578489015482556001820191506001850194506020810190506122eb565b8683101561232d5784890154612329601f891682612139565b8355505b6001600288020188555050505b5050505050505b565b600061234e82611621565b915061235983611621565b925082820261236781611621565b9150828204841483151761237e5761237d611db0565b5b5092915050565b7f4e487b7100000000000000000000000000000000000000000000000000000000600052601260045260246000fd5b60006123bf82611621565b91506123ca83611621565b9250826123da576123d9612385565b5b828204905092915050565b600081905092915050565b60006123fb82611710565b61240581856123e5565b935061241581856020860161172c565b80840191505092915050565b600061242d82846123f0565b915081905092915050565b6000815461244581611f2e565b61244f81866123e5565b9450600182166000811461246a576001811461247f576124b2565b60ff19831686528115158202860193506124b2565b61248885611fc7565b60005b838110156124aa5781548189015260018201915060208101905061248b565b838801955050505b50505092915050565b60006124c78284612438565b91508190509291505056fea2646970667358221220d9835c1981ea77e787a8697d7db3d137801bd6a880e69f696e758dd3ac5fbd8e64736f6c63430008130033",
  "immutableReferences": {},
  "source": "//SPDX-License-Identifier: MIT\r\npragma solidity ^0.8.0;\r\n\r\npragma experimental ABIEncoderV2;\r\n\r\n//import \"@openzeppelin/contracts/token/ERC721/ERC721.sol\";\r\n\r\ncontract PokerLO{\r\n// is ERC721\r\n    struct Player {\r\n        string name;\r\n        uint ELO;\r\n        uint tokenID;\r\n    }\r\n\r\n    uint counter;\r\n    address public owner;\r\n    uint public totalPlayers;\r\n    uint baseELO = 1500;\r\n    Player[] players;\r\n\r\n    //ADDRESS MAP\r\n    mapping(uint => Player) tokenPlayer;\r\n\r\n    modifier onlyOwner(){\r\n        require(msg.sender == owner, \"Only owners may interact\");\r\n        _;\r\n    }\r\n\r\n    constructor(){\r\n        // ERC721(\"PokerLO\", \"PKLO\")\r\n        totalPlayers = 0;\r\n        counter = 0;\r\n        owner = msg.sender;\r\n    }\r\n\r\n    //INPUT NAMES AS ALL CAPITALS\r\n    function addPlayer(string memory name, uint ELO) public onlyOwner returns (uint) {\r\n        if(ELO == 0){\r\n            ELO = baseELO;\r\n        }\r\n        //TOKENIZATION\r\n        uint newToken = totalPlayers;\r\n        totalPlayers++;\r\n        //_mint(msg.sender, newToken);\r\n        players.push(Player(name, ELO, newToken));\r\n        tokenPlayer[newToken] = players[newToken]; //BREAKS\r\n        //END TOKENIZATION\r\n        return newToken;\r\n    }\r\n\r\n    function dummy() public returns (uint) {\r\n        counter++;\r\n        return counter;\r\n    }\r\n\r\n    function subELO(uint id, uint n) public onlyOwner returns (uint) {\r\n        uint i = findPlayerIndex(id);\r\n        players[i].ELO -= n;\r\n        return players[i].ELO;\r\n    }\r\n\r\n    function addELO(uint id, uint n) public onlyOwner returns (uint) {\r\n        uint i = findPlayerIndex(id);\r\n        players[i].ELO += n;\r\n        return players[i].ELO;\r\n    }\r\n\r\n    function getELO(uint id) public view returns (uint) {\r\n        uint i = findPlayerIndex(id);\r\n        return players[i].ELO;\r\n    }\r\n\r\n    function findPlayerID(string memory name) public view returns (uint) {\r\n        bytes32 hashName = keccak256(abi.encodePacked(name));\r\n        for (uint i = 0; i < players.length; i++) {\r\n            if (keccak256(abi.encodePacked(players[i].name)) == hashName) {\r\n                return players[i].tokenID;\r\n            }\r\n        }\r\n        revert(\"Player not found\");\r\n    }\r\n\r\n    function findPlayerName(uint id) public view returns (string memory) {\r\n        for (uint i = 0; i < players.length; i++) {\r\n            if (players[i].tokenID == id) {\r\n                return players[i].name;\r\n            }\r\n        }\r\n        revert(\"Player not found\");\r\n    }\r\n\r\n    function findPlayerIndex(uint id) public view returns (uint) {\r\n        for (uint i = 0; i < players.length; i++) {\r\n            if (players[i].tokenID == id) {\r\n                return i;\r\n            }\r\n        }\r\n        revert(\"Player not found\");\r\n    }\r\n\r\n    function getPlayers() public view returns (string[] memory) {\r\n        uint len = players.length;\r\n        string[] memory playerNames = new string[](len);\r\n        for (uint i = 0; i < len; i++){\r\n            playerNames[i] = players[i].name;\r\n        }\r\n        return playerNames;\r\n    }\r\n\r\n    //HELPER FUNCTION\r\n    function calculateELO(uint buyIn, uint totPlayers) public pure returns (uint[] memory) {\r\n        uint[] memory placeELO = new uint[](totPlayers);\r\n        for (uint i = 0; i < totPlayers; i++){\r\n            placeELO[i] = ((2 * buyIn) / (totPlayers - 1)) * (totPlayers - 1 - i);\r\n        }\r\n        return placeELO;\r\n    }\r\n\r\n    event tournamentWinner(uint indexed playerID, uint newELO);\r\n\r\n    function updateELO(uint buyIn, uint totPlayers, uint[] memory id, uint[] memory place) public onlyOwner{\r\n        uint[] memory listELO = calculateELO(buyIn, totPlayers);\r\n        uint winner;\r\n        uint winnerELO;\r\n        for(uint i = 0; i < totPlayers; i++){\r\n            subELO(id[i], buyIn);\r\n            uint incELO = listELO[place[i]];\r\n            addELO(id[i], incELO);\r\n        }\r\n        for(uint i = 0; i < totPlayers; i++){\r\n            if(place[i] == 0){\r\n                winner = id[i];\r\n                winnerELO = getELO(winner);\r\n            }\r\n        }\r\n        emit tournamentWinner(winner, winnerELO);\r\n    }\r\n\r\n    function ownerPage() public view onlyOwner returns (bool) {\r\n        return true;\r\n    }\r\n\r\n    function topFiveELO() public view returns (uint[] memory) {\r\n        uint len = players.length;\r\n        uint[] memory topELO = new uint[](len);\r\n        uint[] memory topFive;\r\n        for (uint i = 0; i < len; i++){\r\n            topELO[i] = players[i].ELO;\r\n        }\r\n        for (uint i = 0; i < len-1; i++){\r\n            for (uint j = i+1; j < len; j++){\r\n                if(topELO[i] < topELO[j]){\r\n                    uint x = topELO[i];\r\n                    topELO[i] = topELO[j];\r\n                    topELO[j] = x;\r\n                }\r\n            }\r\n        }\r\n        if (len >= 5){\r\n            topFive = new uint[](5);\r\n            for(uint i = 0; i < 5; i++){\r\n                topFive[i] = topELO[i];\r\n            }\r\n        }else{\r\n            return topELO;\r\n        }\r\n        return topFive;\r\n    }\r\n\r\n    function topFiveName() public view returns (string[] memory) {\r\n        uint len = players.length;\r\n        Player[] memory topELO = new Player[](len);\r\n        string[] memory topFive;\r\n        for (uint i = 0; i < len; i++){\r\n            topELO[i] = players[i];\r\n        }\r\n        for (uint i = 0; i < len-1; i++){\r\n            for (uint j = i+1; j < len; j++){\r\n                if(topELO[i].ELO < topELO[j].ELO){\r\n                    Player memory x = topELO[i];\r\n                    topELO[i] = topELO[j];\r\n                    topELO[j] = x;\r\n                }\r\n            }\r\n        }\r\n        if (len >= 5){\r\n            topFive = new string[](5);\r\n            for(uint i = 0; i < 5; i++){\r\n                topFive[i] = topELO[i].name;\r\n            }\r\n        }else{\r\n            topFive = new string[](len);\r\n            for(uint i = 0; i < len; i++){\r\n                topFive[i] = topELO[i].name;\r\n            }\r\n        }\r\n        return topFive;\r\n    }\r\n\r\n}\r\n",
  "sourcePath": "C:\\Users\\Aidan\\Documents\\cse426_project\\PokerLO-contract\\contracts\\POKERLO.sol",
  "compiler": {
    "name": "solc",
    "version": "0.8.19+commit.7dd6d404.Emscripten.clang"
  },
  "schemaVersion": "3.4.13",
  "updatedAt": "2023-04-30T02:09:32.285Z",
  "networkType": "ethereum",
  "devdoc": {
    "kind": "dev",
    "methods": {},
    "version": 1
  },
  "userdoc": {
    "kind": "user",
    "methods": {},
    "version": 1
  }
}